:020000040000FA
:1000000030020020F100000017010000D5000000C0
:1000100000000000000000000000000000000000E0
:100020000000000000000000000000001B010000B4
:1000300000000000000000001D0100001F01000082
:100040002101000021010000210100002101000028
:100050002101000021010000210100002101000018
:10006000210100002101000021010000F50C000029
:10007000350D0000210100002101000021010000D8
:10008000210100002101000021010000790700008A
:1000900021010000210100002101000021010000D8
:1000A00021010000210100002101000021010000C8
:1000B00021010000210100002101000021010000B8
:1000C0000348854600F09AF80048004715150000DF
:1000D0003002002004207146084202D0EFF309806C
:1000E00001E0EFF308807146004A10475107000015
:1000F0000C480D4901600D4901600D4901600D4A30
:100100000D4911600D4A0E491160002101600D4832
:1001100080470D480047FEE7FEE7FEE7FEE7FEE703
:10012000FEE700000001004059000000160000003A
:100130008800000024000040A55A00008002004012
:1001400001000000D90B0000C100000030B50B46D3
:10015000014600202022012409E00D46D5409D42A1
:1001600005D31D469540491B254695404019154627
:10017000521E002DF1DC30BD03460B439B0703D01C
:1001800009E008C9121F08C0042AFAD203E00B785C
:100190000370401C491C521EF9D27047F0B51FB4C1
:1001A0000646002082B005464024019100901BE0E5
:1001B000019922460F46304600F042F8049A059B0A
:1001C000801A994110D310461946224600F028F8AB
:1001D000361A8F410197224601200021009F00F02E
:1001E0001FF838184D4100902046641E0028DFDCBF
:1001F000019B00982946324607B0F0BD064C012508
:10020000064E05E0E36807CC2B430C3C98471034BE
:10021000B442F7D3FFF758FFB4160000D41600001D
:1002200010B5202A04DB0146203A9140002010BD81
:10023000914020239C1A0346E3401943904010BD8F
:1002400010B5202A04DB0846203AD040002110BD1A
:100250000B46D340D0402024A21A914008431946AF
:1002600010BD00000EB509490EC900910192810F21
:100270008A00029369468A58054951184A68C3069C
:10028000DB0E0120984002434A600EBD7C16000040
:100290000002004002490A6802430A6070470000F9
:1002A0000002004010B500F04DFC0148006810BD90
:1002B0000000002002480068C00700D001487047D5
:1002C000000200400048E80104480068800702D5A9
:1002D0000120C0037047002070470000000200406A
:1002E00010B500F02FFC0448406B41070348490F4C
:1002F0000068C84010BD000000020040000000205F
:1003000010B500F01FFC0448406B4006410F034845
:100310000068C84010BD000000020040000000203E
:1003200008B511A000681149009009680020052255
:100330001204114216D1080301D50D4800E00D4802
:100340008A030FD40A04920F6B469B5CCA0589048A
:10035000D20DC90E891C8008921C59435043FFF7E7
:10036000F5FE800008BD00000102020440020040CA
:10037000001BB7000048E801F3B5124881B00569D9
:100380000F4610200F4C0540403C206804263043A7
:100390002060102000F050F82069072108432061F8
:1003A000206A0009000138432062206988430199CE
:1003B0000843206100F0C6FB002D02D12068B04345
:1003C0002060FEBD40020040F0B5194B88B0F0CB74
:1003D000009401ACE0C478CB04AF78C7840A23064C
:1003E0001B0E0ED003039B0F9B0004ADEB58114D69
:1003F0005B19E5B28405E40EA5401C68AC431443C8
:100400001C60420E520710D08200920F92006B4681
:100410009A58084B103BD21803015B0FC001C00E65
:100420008340106898430843106008B0F0BD000096
:100430005C1600002002004010B504460749084B36
:1004400005E00A46491E002A01DC002010BD1A6999
:1004500020469043F5D1012010BD000080F520001A
:1004600040020040F0B587B0502005900024694656
:100470000C7046A00FC801AE0FC6484DE8680126B3
:10048000800700281CDAE86802218843E86044A05D
:1004900000F0E0FD7707E1B201236A46059800F01D
:1004A000A1FA6846017842A000F0D4FD6007F84246
:1004B00002D141A000F0CEFD641CA4B2FF2CEAD909
:1004C000E868000713D5E86808218843E8606846B3
:1004D000067001236A466978059800F09FFA6978EA
:1004E000481C68706846027834A000F0B3FDE868E4
:1004F000C00615D5E86810218843E860A8786A46E8
:100500001070401CA87069700123059800F086FAED
:1005100069786A46481C6870127828A000F09AFD35
:10052000E868800618D5E86820218843E860402004
:100530006870002401AE69783219481C6870012384
:10054000059800F06BFA325D69781CA000F082FD1E
:10055000641CA4B2102CEED3E868C00714D0E8687D
:1005600040084000E8601BA000F074FDFF206946D1
:1005700008700024E1B201236A46059800F04EFAA3
:10058000641CA4B2FF2CF5D907B0F0BD2316804936
:10059000563017223346552739485760100000203F
:1005A00064756D7020454550524F4D0D0A00000096
:1005B00030782532582C00000D0A00005752203A9E
:1005C000203078253258203A203078253258200DB6
:1005D0000A000000636C65617220454550524F4D22
:1005E0000D0A0000F8B50020694608700446502541
:1005F00031A000F02FFDFF2069460870E1B2012311
:100600006A46284600F00AFA641CA4B2FF2CF5D909
:10061000F4206946087001236A460021284600F04C
:10062000FDF96946097828A000F014FD12206946FA
:10063000087001236A461946284600F0EFF969461A
:10064000097821A000F006FD3420694608700123D6
:100650006A460221284600F0E1F96946097820A09F
:1006600000F0F8FC56206946087001236A46032111
:10067000284600F0D3F9694609781FA000F0EAFC8B
:1006800023A000F0E7FC002401267607E1B2012355
:100690006A46284600F0A6F96846017820A000F0D6
:1006A000D9FC6007F04202D106A000F0D3FC641C24
:1006B000A4B2FF2CEAD9F8BD636C65617220454590
:1006C00050524F4D0D0A00005752203A20307830DA
:1006D00031203A203078253258200D0A00000000E1
:1006E0005752203A2030783032203A203078253264
:1006F00058200D0A000000005752203A2030783070
:1007000033203A203078253258200D0A00000000AE
:1007100064756D7020454550524F4D0D0A00000024
:1007200030782532582C0000F0B5002301273C46D4
:100730009C400C4208D005685C000326A640B543E7
:100740001646A640354305605B1C102BEFD3F0BD69
:10075000044603A000F07EFC204600F0EFFEFEE71A
:10076000496E2048617264204661756C742048614E
:100770006E646C65720A000010B50849C8684A6961
:10078000D243D20706D006494A69002A01D04969F6
:10079000884710BD084600F035F810BD001008402D
:1007A0001000002010B50E4800F0AEF90E4C0D49B7
:1007B000204600F047F80023A0221946204600F00A
:1007C00065F8204600F028F8014608A000F042FC39
:1007D000204600F01CF801200949C004086010BD43
:1007E00009000004A086010000100840493243209F
:1007F000636C6F636B20256420487A0A0000000058
:1008000000E100E041690122114341617047016844
:10081000802211430160704710B50469064988427F
:1008200002D1FFF76DFD01E0FFF75AFDA100091DA0
:10083000FFF78CFC10BD0000001008408068C0B2BB
:100840007047000070B505460F480E46854202D13C
:10085000FFF756FD01E0FFF743FD04460A22B10011
:100860005043FFF773FC0A21401DFFF76FFC401E49
:100870002861296840221143296081002046091D12
:10088000FFF764FC70BD0000001008405200012911
:1008900006D0022906D0032906D01A4342607047C9
:1008A00082617047C261704702627047F8B53C24AC
:1008B0002A4E2B4D082819D018281AD020281DD0D0
:1008C000012728281ED0102829D040282BD05028B6
:1008D0002DD0582811D12846FFF7B0FF01463079B6
:1008E000B2691218401C3071117012E0F0784000AB
:1008F00000E0B079A8602DE02860F8BD2868A0432A
:100900003830F9E77079002803D02868A0432830F0
:10091000F2E72868A043183028603770F8BDF078F7
:100920004000401CE6E7707901280FD812E0284605
:10093000FFF784FF01463079B2691218401C30710C
:10094000117031797079401E814203DA2868A04322
:100950000C30D1E72868A0430830CDE71000002014
:100960000010084010B51D493C221D4B082811D02D
:10097000182812D0202817D0282819D0382829D094
:10098000002810D1086890431C3008600868904324
:100990000C3007E0D878400000E09879886008685B
:1009A00090430830086010BD086890433830F9E77C
:1009B00018795C79A04206D218799C692418401CE9
:1009C00018712078EAE70868904318300860012021
:1009D000187010BD086890432C30E3E70010084001
:1009E0001000002010B50A4CE0706371A171002066
:1009F000A2612070207107486061074908683C22A5
:100A000090432030086020780028FCD010BD000002
:100A100010000020AD0800000010084010B50A4C7E
:100A2000E0706371A1710021A261217121700748FA
:100A30006061074802683C239A43203202602078B4
:100A40000028FCD0217010BD1000002065090000B6
:100A500000100840BFF34F8F04490348C860BFF33C
:100A60004F8F00BFFDE700000400FA0500ED00E035
:100A700070B55920214C1622882120602260216007
:100A80002368002BF9D00420FFF704FC1020FFF7A7
:100A9000D3FC0820FFF7FEFB0820FFF7CDFC002168
:100AA0000720FFF769FC164D2846FFF7DBFB012105
:100AB000002289062846FFF787FC124D2846FFF7DB
:100AC000D1FB0121002249052846FFF77DFC0B4898
:100AD000F738FFF7C7FB00F035F8A807C16BFF2216
:100AE00012049143332252048918C163816B090AAD
:100AF0000902993181630020206070BD000100402F
:100B0000103D805F0500405F0121020E89075118EA
:100B10008B680122824013438B6088689043886011
:100B20007047000006498A691202FCD408600A284E
:100B300004D188690002FCD40D20086070470000D1
:100B400000000740F8B51D4D28691C4944071CA04A
:100B500000680090640F00204031096805221204EB
:100B6000114216D1080301D5164800E016488A0341
:100B70000FD40A04920F6B469B5CCA058904D20D00
:100B8000C90E891C8008921C59435043FFF7DEFAB6
:100B900080000E4E022CB06002D00D49A000085813
:100BA000296A0907090F491CFFF7D0FA0949306083
:100BB0004A108018FFF7CAFA7060F8BD00020040C2
:100BC00001020204001BB7000048E80100000020F9
:100BD000F415000040420F0010B559210A481623B1
:100BE00088220160036002600468002CF9D0074984
:100BF0000B680722120593430B600B6813430B60CD
:100C00000021016010BD0000000100400002004012
:100C100010B50A4C7D220121D200C906204600F001
:100C200049F82068210608432060881404490860B8
:100C3000206889050843206010BD00002010054091
:100C400000E100E010B588B004462022154968464E
:100C5000FFF792FA144B144A14482033944202D1FD
:100C60004069000A0BE09C4202D14069000B06E09B
:100C70000F4940698C4201D1000C00E0000D410792
:100C8000490F022904D088006946085808B010BDF1
:100C9000944201D09C4202D1FFF722FBF6E7FFF716
:100CA0002FFBF3E79416000000000540000200400F
:100CB00000100540F7B517460646FFF7C3FF054687
:100CC00000244008B84201D8022008E039462846EE
:100CD000FFF73CFA040E02D0611CFFF737FA0199C6
:100CE000214331607060641C604301462846FFF771
:100CF0002DFAFEBD00B50C488168C907C90F11D097
:100D00000122826000F06EFC08490889431C0B81B7
:100D10007D23DB00984205D3002008810448816BC5
:100D20005140816300BD00002010054010000020EC
:100D30004048004010B50B4CE069112109020842FF
:100D400002D104E000F032F9A1694904FAD5A169A1
:100D500020467122114203D00921890200F08CF84B
:100D600010BD00000000074010B51E48FFF7CCFE84
:100D70001D4CE1214902204600F09AF8142120463A
:100D800000F008F9A06810218843A060A068202125
:100D90000843A06060681549084360600120144959
:100DA00000030860FFF77EFA014612A000F052F936
:100DB000FFF780FA014616A000F04CF9FFF784FA1D
:100DC000014619A000F046F9FFF78AFA01461CA077
:100DD00000F040F9FFF794FA014620A000F03AF93C
:100DE00010BD0000100000040000074011080000C2
:100DF00000E100E00D0A434C4B5F476574435055DA
:100E000046726571203A202538640D0A0000000002
:100E1000434C4B5F47657448585446726571203A9D
:100E2000202538640D0A0000434C4B5F4765744C25
:100E3000585446726571203A202538640D0A000026
:100E4000434C4B5F47657450434C4B304672657161
:100E5000203A202538640D0A00000000434C4B5F07
:100E600047657450434C4B3146726571203A2025DA
:100E700038640D0A00000000CA0102D501221204E4
:100E8000C2614A0503D570228261082282610A0587
:100E900003D5426901231A4342618A0401D5034AFA
:100EA0008261490401D51F2141647047010000019E
:100EB000F0B587B00F46044600252E4618222E496D
:100EC0006846FFF759F92D492D482E4A8C4205D125
:100ED0004369006A5B015D0F000A0FE02A4B9C42E8
:100EE00006D14369006A5B005D0F0004060F07E04E
:100EF000944205D1C369006B5B015D0F0607360F95
:100F0000002020630320E060A068204B1840A06010
:100F1000012D02D0042D04D00DE0FFF701FA01905D
:100F200009E08C4201D0944202D1FFF7D9F901E0E7
:100F3000FFF7E6F90490002F1BD0A900684640583F
:100F4000711CFFF703F90546790840183946FFF789
:100F5000FDF80F49801E884207D9F9006818394604
:100F6000FFF7F4F80009801E02E003210907084397
:100F7000606207B0F0BD00001416000000000740DA
:100F80000002004000200740001007400FFFF0FF64
:100F9000FFFF0000026A120A12020A43026241685D
:100FA0000122D202114341607047000010B51C4875
:100FB0000068C4B221461BA000F04CF8782C1CD06D
:100FC000582C1AD07F2C03D91CA000F043F810BD78
:100FD0001F48342C1BD00ADC302C1ED0312C0ED0F4
:100FE000322C0FD0332CF2D1C16810220CE0352CFA
:100FF00010D05A2C01D07A2CE9D1FFF72BFDC16813
:10100000022201E0C16808221143C16010BDC1681D
:101010002022F9E7C1684022F6E7C1680122F3E720
:101020000000074055415254785F50726F636573FA
:1010300073203D2025630D0A00000000696E766173
:101040006C696420636F6D6D616E640D0A00000051
:10105000100000200FB410B503A9044B044A0298F5
:1010600000F018F810BC08BC04B0184709150000BF
:101070000C00002002E008C8121F08C1002AFAD1A3
:1010800070477047002001E001C1121F002AFBD108
:1010900070470000FFB591B00F460546002606E0F8
:1010A00025280AD0149A139990476D1C761C28782D
:1010B0000028F5D1304615B0F0BD00240094012180
:1010C000F34A029400E004436D1C2B780846203B51
:1010D00098401042F7D128782A280ED0022128788B
:1010E0000246303A092A15D8009A0A235A43303A60
:1010F00080180C436D1C0090F1E701CF0090002890
:1011000005DA012040030443009840420090022089
:1011100004436D1C28782E2815D1042004436878D8
:101120006D1C2A280AD101CF6D1C02900BE0029998
:101130000A225143303940186D1C0290287801462C
:1011400030390929F3D928786C2810D006DC4C28CE
:101150001AD068280ED06A2817D104E0742813D05A
:101160007A2812D110E00120400504430CE001214F
:10117000090501E0032109050C436978814203D187
:101180000120000524186D1C6D1C287803906E2822
:101190001ED00CDC632831D004DC00288AD058280B
:1011A00011D1B2E064287BD069280CD178E0732893
:1011B0002DD004DC6F2870D0702804D1A7E07528EA
:1011C0006CD078286BD0149A13999047761C62E003
:1011D0006002400F022807D003280AD0042838688C
:1011E0000AD006603F1D56E03868F117066041607E
:1011F000F8E738680680F5E70670F3E7387869465F
:1012000008740020487404A80390012003E03868A3
:1012100003900020C0433F1D61070FD5002101E06E
:101220000199491C029A0191914213DA8142F7DB3C
:10123000019A0399895C0029F2D10BE0002101E0B9
:101240000199491C01918142FADB019A0399895C59
:101250000029F5D101990098139A401A009021466F
:10126000149B00F03BF901998019461807E0039898
:1012700003990078491C0391149A13999047019897
:10128000401E0190401CF2D12146149B139A0098F5
:1012900000F014F986196D1C09E741E033E034E0F1
:1012A0000A200021049005916002410F022905D017
:1012B00001CFC2179446032905D007E0FF1DFF08A0
:1012C000FF0003CF06E000B2C2179446042902D102
:1012D00040B2C1178C4600226146944506DA0A46A0
:1012E0000021404291418C462D2102E0210504D588
:1012F0002B216A461176012103E0E10701D020216C
:10130000F7E7019154E00A200BE0102009E01020DB
:10131000049000210420044308200591029003E07A
:1013200008200021059104906002410F022905D098
:1013300001CF00229446032906D006E0FF1DFF08D6
:10134000FF0003CF8C4603E080B2042900D1C0B275
:101350000021019121072BD50399702906D0049A09
:101360001021059B4A401A4305D00EE040216A46F1
:101370001176012108E06146014306D030216A461A
:1013800011760399517602210191049A0821059B57
:101390004A401A430CD16146014301D1610707D588
:1013A00030216A461176012101910299491E02916C
:1013B0000399582904D037A103910FA90F910DE08B
:1013C00039A1F9E76146059B049AFEF7E7FE039B06
:1013D0008C469B5C0F9A521E0F921370614601431C
:1013E000F0D10F9807A9081A20300390600704D5A0
:1013F000012000048443029801E001200290039937
:10140000884201DD401A00E0002041180290019856
:1014100009180098401A0090E00306D42146149B56
:10142000139A009800F05AF886190020049008E0FA
:1014300006A9085C149A139990470498401C761CDE
:10144000049001998842F3DBE0030CD52146149BFC
:10145000139A009800F042F8861904E0149A30209C
:1014600013999047761C0299481E02900029F5DCDA
:1014700008E00F980F990078491C0F91149A13995E
:101480009047761C0399481E03900029F1DCFBE687
:10149000092801003031323334353637383961624A
:1014A000636465660000000030313233343536370E
:1014B000383941424344454600000000F8B504462F
:1014C00000251E461746880404D405E0394620202E
:1014D000B0476D1C641EF9D52846F8BDFFB504461B
:1014E000002581B01E46C80301D5302700E0202723
:1014F000880404D505E038460399B0476D1C641E86
:10150000F9D5284605B0F0BD10B50446FFF70AFB33
:10151000204610BDFFF7ACFAFFF726FC012291032D
:101520000548FFF701F9FFF73DF9FFF771FBFFF7FA
:1015300059F8FEF797FFFCE74040004010B504461D
:10154000016810A0FFF786FD11A06168FFF782FD1A
:1015500012A0A168FFF77EFD13A0E168FFF77AFDF6
:1015600014A02169FFF776FD15A06169FFF772FDF0
:1015700016A0A169FFF76EFD17A0E169FFF76AFDEC
:1015800010BD0000723020203D20307825780A0000
:10159000723120203D20307825780A0072322020D8
:1015A0003D20307825780A00723320203D203078A5
:1015B00025780A00723132203D20307825780A00E3
:1015C0006C7220203D20307825780A00706320203E
:1015D0003D20307825780A00707372203D203078E5
:1015E00025780A0002480169491C01617047000022
:1015F000100000200048E8010080000000D8B80575
:1016000000960000006CDC020000000000000000FA
:10161000006CDC020048E8010000000000800000CF
:10162000006CDC0200000000009600000048E801A9
:101630000000000000800000006CDC0200000000E0
:10164000009600000048E801000000000080000053
:10165000006CDC02000000000096000000000000AA
:1016600004000000080000000C0000000000000062
:10167000000000000000000010000000000000005A
:10168000040000000800000000000000040000004A
:10169000080000000048E801008000000000000091
:1016A00000000000000000000096000000000000A4
:1016B000006CDC02D4160000000000202C000000AA
:1016C00074100000001700002C000020040200002D
:1016D0008410000000D8B8056000000000D8B805EC
:1016E00000000000000000000000000000000000FA
:1016F00000000000000000000000000000000000EA
:04000005000000F106
:00000001FF
