:020000040000FA
:1000000030020020F100000017010000D5000000C0
:1000100000000000000000000000000000000000E0
:100020000000000000000000000000001B010000B4
:1000300000000000000000001D0100001F01000082
:100040002101000021010000210100002101000028
:100050002101000021010000210100002101000018
:100060002101000021010000210100005D0E0000BF
:100070009D0E00002101000021010000210100006F
:100080002101000021010000A10800002101000061
:1000900021010000210100002101000021010000D8
:1000A00021010000210100002101000021010000C8
:1000B00021010000210100002101000021010000B8
:1000C0000348854600F09AF8004800477D16000076
:1000D0003002002004207146084202D0EFF309806C
:1000E00001E0EFF308807146004A104779080000EC
:1000F0000C480D4901600D4901600D4901600D4A30
:100100000D4911600D4A0E491160002101600D4832
:1001100080470D480047FEE7FEE7FEE7FEE7FEE703
:10012000FEE700000001004059000000160000003A
:100130008800000024000040A55A00008002004012
:1001400001000000410D0000C100000030B50B4669
:10015000014600202022012409E00D46D5409D42A1
:1001600005D31D469540491B254695404019154627
:10017000521E002DF1DC30BD03460B439B0703D01C
:1001800009E008C9121F08C0042AFAD203E00B785C
:100190000370401C491C521EF9D27047F0B51FB4C1
:1001A0000646002082B005464024019100901BE0E5
:1001B000019922460F46304600F042F8049A059B0A
:1001C000801A994110D310461946224600F028F8AB
:1001D000361A8F410197224601200021009F00F02E
:1001E0001FF838184D4100902046641E0028DFDCBF
:1001F000019B00982946324607B0F0BD064C012508
:10020000064E05E0E36807CC2B430C3C98471034BE
:10021000B442F7D3FFF758FF1C1800003C18000049
:1002200010B5202A04DB0146203A9140002010BD81
:10023000914020239C1A0346E3401943904010BD8F
:1002400010B5202A04DB0846203AD040002110BD1A
:100250000B46D340D0402024A21A914008431946AF
:1002600010BD00000EB509490EC900910192810F21
:100270008A00029369468A58054951184A68C3069C
:10028000DB0E0120984002434A600EBDE4170000D7
:100290000002004002490A6802430A6070470000F9
:1002A0000002004010B500F001FD0148006810BDDB
:1002B0000000002002480068C00700D001487047D5
:1002C000000200400048E80104480068800702D5A9
:1002D0000120C0037047002070470000000200406A
:1002E00010B500F0E3FC0448406B41070348490F98
:1002F0000068C84010BD000000020040000000205F
:1003000010B500F0D3FC0448406B4006410F034891
:100310000068C84010BD000000020040000000203E
:1003200008B511A000681149009009680020052255
:100330001204114216D1080301D50D4800E00D4802
:100340008A030FD40A04920F6B469B5CCA0589048A
:10035000D20DC90E891C8008921C59435043FFF7E7
:10036000F5FE800008BD00000102020440020040CA
:10037000001BB7000048E801F3B5124881B00569D9
:100380000F4610200F4C0540403C206804263043A7
:100390002060102000F062F82069072108432061E6
:1003A000206A0009000138432062206988430199CE
:1003B0000843206100F07AFC002D02D12068B04390
:1003C0002060FEBD40020040F0B5194B88B0F0CB74
:1003D000009401ACE0C478CB04AF78C7840A23064C
:1003E0001B0E0ED003039B0F9B0004ADEB58114D69
:1003F0005B19E5B28405E40EA5401C68AC431443C8
:100400001C60420E520710D08200920F92006B4681
:100410009A58084B103BD21803015B0FC001C00E65
:100420008340106898430843106008B0F0BD000096
:10043000C4170000200200400649096848430649E5
:10044000486100228A61052008610869C003FCD563
:100450000A6170470400002000E000E010B5044687
:100460000749084B05E00A46491E002A01DC002026
:1004700010BD1A6920469043F5D1012010BD00003F
:1004800080F5200040020040F0B587B05020059074
:10049000002469460C7046A00FC801AE0FC6484D37
:1004A000E8680126800700281CDAE86802218843F2
:1004B000E86044A000F082FE770701236A462146E7
:1004C000059800F041FB6846017842A000F076FEF6
:1004D0006007F84202D141A000F070FE641CA4B293
:1004E000FF2CEAD9E868000713D5E868082188439B
:1004F000E8606846067001236A466978059800F04E
:100500003FFB6978481C68706846027834A000F0A8
:1005100055FEE868C00615D5E86810218843E860F4
:10052000A8786A461070401CA8706970012305986D
:1005300000F026FB69786A46481C6870127828A08B
:1005400000F03CFEE868800618D5E8682021884362
:10055000E86040206870002401AE69783219481CB8
:1005600068700123059800F00BFB325D69781CA0D0
:1005700000F024FE641CA4B2102CEED3E868C0077F
:1005800014D0E86840084000E8601BA000F016FEA8
:10059000FF2069460870002401236A462146059819
:1005A00000F0EEFA641CA4B2FF2CF5D907B0F0BD40
:1005B000231680495630172233465527394857604D
:1005C0001000002064756D7020454550524F4D0D50
:1005D0000A00000030782532582C00000D0A000077
:1005E0005752203A203078253258203A203078254A
:1005F0003258200D0A000000636C65617220454589
:1006000050524F4D0D0A0000FEB5002569460D7091
:10061000502001902C4602956EA000F0CFFDFF20E7
:100620006946704F087001236A462146019800F020
:10063000A7FA3846FFF700FF641CA4B2FF2CF2D9DA
:10064000F4206A461070002401232146019800F02E
:1006500097FA3846FFF7F0FE6A461278214662A004
:1006600000F0ACFD6A462C46157001232146019826
:1006700000F06AFA6A461278214661A000F09EFDF9
:1006800012266A46012516702B462946019800F06D
:1006900077FA3846FFF7D0FE6A461278294652A00C
:1006A00000F08CFD6A46147001232946019800F081
:1006B0004BFA6A461278294651A000F07FFD34209B
:1006C0006A461070022501232946019800F058FA65
:1006D0003846FFF7B1FE6A461278294642A000F07C
:1006E0006DFD6A46147001232946019800F02CFA2A
:1006F0006A461278294642A000F060FD56206A46FC
:100700001070032501232946019800F039FA384674
:10071000FFF792FE6A461278294633A000F04EFD9C
:100720006A46147001232946019800F00DFA6A46C2
:100730001278294632A000F041FD6A4656724620E2
:10074000107299256D01022302AA2946019800F032
:1007500017FA3846FFF770FE6A46537A127A29462E
:100760002DA000F02BFD6A46147001232946019844
:1007700000F0EAF96A461278294621A000F01EFD31
:100780006A4614706C1C01232146019800F0DCF9C4
:100790006A46127821461AA000F010FD26A000F04B
:1007A0000DFD00242D0601236A462146019800F024
:1007B000CBF96846017824A000F000FD6007E8420C
:1007C00002D107A000F0FAFC641CA4B2FF2CEAD905
:1007D000FEBD0000636C65617220454550524F4D6F
:1007E0000D0A0000AC0D00005752203A2030782549
:1007F0003258203A203078253258200D0A00000067
:100800005244203A203078253258203A203078253A
:100810003258200D0A0000005752203A2030782527
:100820003258203A203078253258202C2030782534
:100830003258200D0A00000064756D702045455047
:10084000524F4D0D0A00000030782532582C000020
:10085000F0B5002301273C469C400C4208D00568B7
:100860005C000326A640B5431646A6403543056006
:100870005B1C102BEFD3F0BD044603A000F09EFCE0
:10088000204600F00FFFFEE7496E204861726420A9
:100890004661756C742048616E646C65720A000074
:1008A00010B50849C8684A69D243D20706D006493C
:1008B0004A69002A01D04969884710BD084600F0FE
:1008C00005F810BD00000840100000204169012219
:1008D00011434161704701688022114301607047F4
:1008E00010B504690649884202D1FFF709FD01E00D
:1008F000FFF7F6FCA100091DFFF728FC10BD000062
:10090000001008408068C0B27047000070B505460E
:100910000F480E46854202D1FFF7F2FC01E0FFF7D7
:10092000DFFC04460A22B1005043FFF70FFC0A2106
:10093000401DFFF70BFC401E28612968402211432F
:10094000296081002046091DFFF700FC70BD0000F2
:10095000001008405200012906D0022906D00329C0
:1009600006D01A434260704782617047C261704787
:100970000262704710B50E4800F07AF90E4C0D492E
:100980002046FFF7C3FF0023A02219462046FFF7A9
:10099000E1FF2046FFF7A4FF014608A000F00EFC8F
:1009A0002046FFF798FF012009498004086010BD28
:1009B00008000004A08601000000084049324320DE
:1009C000636C6F636B20256420487A0A0000000086
:1009D00000E100E0F8B53C242F4E304D08281AD035
:1009E000802118281AD0202823D00127282825D094
:1009F000102839D040283CD050283CD0582817D156
:100A00002846FFF77FFF01463079B2691218401C73
:100A10003071117022E0F078400028E03089000A3F
:100A2000A8602868A04308302860F0680843F06098
:100A3000F8BD2868A04338302860F8BD70790028D8
:100A40000CD0F068000605D5F0688843F060308966
:100A5000C0B20CE02868A0432830EDE72868A04326
:100A6000183028603770F8BDF0784000401CA8604E
:100A70000DE070790BE02846FFF744FF014630791E
:100A8000B2691218401C3071117031797079286880
:100A9000A0430830D0E7000010000020000008400C
:100AA00030B527493C22274B082812D0802418282B
:100AB00012D020281BD028281ED038283BD0002850
:100AC00014D1086890431C300860086890430C30CB
:100AD00010E0D878400022E01889000A8860086891
:100AE000904308300860D8682043D86030BD08685B
:100AF00090433830086030BD18795D79A84213D230
:100B0000D868000605D5D868A043D8601889C0B257
:100B100005E018799C692418401C187120788860B9
:100B2000086890430830E5E708689043183008608B
:100B30000120187030BD086890432C30DAE70000BF
:100B4000000008401000002010B50A4CE0706371EE
:100B500021810020A261207020710748606107494F
:100B600008683C2290432030086020780028FCD0A0
:100B700010BD000010000020D50900000000084052
:100B800010B50A4CE070637121810021A2612171CE
:100B9000217007486061074802683C239A4320326D
:100BA000026020780028FCD0217010BD10000020C9
:100BB000A10A000000000840BFF34F8F044903481A
:100BC000C860BFF34F8F00BFFDE700000400FA05C7
:100BD00000ED00E070B55920224C162188222060DB
:100BE000216022602368002BF9D00420FFF752FB1C
:100BF0001020FFF733FC0820FFF74CFB0820FFF71D
:100C00002DFC00210720FFF7B7FB174D2846FFF703
:100C100029FB0121002289062846FFF7D5FB134D49
:100C20002846FFF71FFB0121002249052846FFF750
:100C3000CBFB0C48F838FFF715FB00F037F8A80796
:100C4000C16BFF2212049143332252048918C163FD
:100C50000448C0380168090A09029931016000207E
:100C6000206070BD00010040103D805F0500405FC6
:100C70000121020E890751188B680122824013431B
:100C80008B608868904388607047000006498A69D5
:100C90001202FCD408600A2804D188690002FCD43E
:100CA0000D2008607047000000000740F8B51D4D9A
:100CB00028691C4944071CA000680090640F0020AC
:100CC0004031096805221204114216D1080301D5EA
:100CD000164800E016488A030FD40A04920F6B46A8
:100CE0009B5CCA058904D20DC90E891C8008921C20
:100CF00059435043FFF72AFA80000E4E022CB06091
:100D000002D00D49A0000858296A0907090F491C9B
:100D1000FFF71CFA094930604A108018FFF716FAED
:100D20007060F8BD0002004001020204001BB70021
:100D30000048E801000000205C17000040420F005E
:100D400010B559210A481623882201600360026009
:100D50000468002CF9D007490B6807221205934359
:100D60000B600B6813430B600021016010BD000095
:100D7000000100400002004010B50A4C7D22012114
:100D8000D200C906204600F049F820682106084331
:100D900020608814044908602068890508432060A1
:100DA00010BD00002010054000E100E010B588B043
:100DB0000446202215496846FFF7DEF9144B144A11
:100DC00014482033944202D14069000A0BE09C424F
:100DD00002D14069000B06E00F4940698C4201D105
:100DE000000C00E0000D4107490F022904D08800E3
:100DF0006946085808B010BD944201D09C4202D107
:100E0000FFF76EFAF6E7FFF77BFAF3E7FC1700004F
:100E1000000005400002004000100540F7B51746ED
:100E20000646FFF7C3FF054600244008B84201D834
:100E3000022008E039462846FFF788F9040E02D060
:100E4000611CFFF783F90199214331607060641CD4
:100E5000604301462846FFF779F9FEBD00B50C480E
:100E60008168C907C90F11D00122826000F06EFCB1
:100E70000849C888431CCB807D23DB00984205D3FA
:100E80000020C8800448816B5140816300BD000090
:100E900020100540100000204048004010B50B4CC9
:100EA000E06911210902084202D104E000F032F9A0
:100EB000A1694904FAD5A16920467122114203D0E3
:100EC0000921890200F08CF810BD000000000740E5
:100ED00010B51E48FFF7CCFE1D4CE121490220460B
:100EE00000F09AF81421204600F008F9A0681021BB
:100EF0008843A060A06820210843A060606815496D
:100F0000084360600120144900030860FFF7CAF934
:100F1000014612A000F052F9FFF7CCF9014616A0E5
:100F200000F04CF9FFF7D0F9014619A000F046F99E
:100F3000FFF7D6F901461CA000F040F9FFF7E0F9F1
:100F4000014620A000F03AF910BD00001000000496
:100F5000000007401108000000E100E00D0A434CCA
:100F60004B5F47657443505546726571203A2025A2
:100F700038640D0A00000000434C4B5F476574481D
:100F8000585446726571203A202538640D0A0000D5
:100F9000434C4B5F4765744C585446726571203A18
:100FA000202538640D0A0000434C4B5F47657450A0
:100FB000434C4B3046726571203A202538640D0A47
:100FC00000000000434C4B5F47657450434C4B316D
:100FD00046726571203A202538640D0A0000000031
:100FE000CA0102D501221204C2614A0503D570224A
:100FF0008261082282610A0503D5426901231A43EE
:1010000042618A0401D5034A8261490401D51F2146
:101010004164704701000001F0B587B00F460446F7
:1010200000252E4618222E496846FFF7A5F82D49BF
:101030002D482E4A8C4205D14369006A5B015D0F41
:10104000000A0FE02A4B9C4206D14369006A5B000C
:101050005D0F0004060F07E0944205D1C369006BE1
:101060005B015D0F0607360F002020630320E06060
:10107000A068204B1840A060012D02D0042D04D0A0
:101080000DE0FFF74DF9019009E08C4201D0944248
:1010900002D1FFF725F901E0FFF732F90490002FA4
:1010A0001BD0A90068464058711CFFF74FF8054651
:1010B000790840183946FFF749F80F49801E8842E1
:1010C00007D9F90068183946FFF740F80009801E73
:1010D00002E0032109070843606207B0F0BD000089
:1010E0007C1700000000074000020040002007407D
:1010F000001007400FFFF0FFFFFF0000026A120A16
:1011000012020A43026241680122D2021143416085
:101110007047000010B51C480068C4B221461BA0EF
:1011200000F04CF8782C1CD0582C1AD07F2C03D906
:101130001CA000F043F810BD1F48342C1BD00ADC63
:10114000302C1ED0312C0ED0322C0FD0332CF2D1BB
:10115000C16810220CE0352C10D05A2C01D07A2C0A
:10116000E9D1FFF729FDC168022201E0C168082228
:101170001143C16010BDC1682022F9E7C168402257
:10118000F6E7C1680122F3E70000074055415254D9
:10119000785F50726F63657373203D2025630D0A7D
:1011A00000000000696E76616C696420636F6D6D8C
:1011B000616E640D0A000000100000200FB410B52D
:1011C00003A9044B044A029800F018F810BC08BCAC
:1011D00004B01847711600000C00002002E008C897
:1011E000121F08C1002AFAD170477047002001E0A1
:1011F00001C1121F002AFBD170470000FFB591B05A
:101200000F460546002606E025280AD0149A1399B1
:1012100090476D1C761C28780028F5D1304615B013
:10122000F0BD002400940121F34A029400E004433D
:101230006D1C2B780846203B98401042F7D1287847
:101240002A280ED0022128780246303A092A15D8D9
:10125000009A0A235A43303A80180C436D1C0090C0
:10126000F1E701CF0090002805DA01204003044394
:10127000009840420090022004436D1C28782E28DC
:1012800015D10420044368786D1C2A280AD101CFA7
:101290006D1C02900BE002990A225143303940182C
:1012A0006D1C02902878014630390929F3D9287835
:1012B0006C2810D006DC4C281AD068280ED06A287A
:1012C00017D104E0742813D07A2812D110E001203D
:1012D000400504430CE00121090501E00321090553
:1012E0000C436978814203D10120000524186D1C4C
:1012F0006D1C287803906E281ED00CDC632831D03A
:1013000004DC00288AD0582811D1B2E064287BD0B0
:1013100069280CD178E073282DD004DC6F2870D0B8
:10132000702804D1A7E075286CD078286BD0149A67
:1013300013999047761C62E06002400F022807D0A4
:1013400003280AD0042838680AD006603F1D56E0FA
:101350003868F11706604160F8E738680680F5E7FD
:101360000670F3E73878694608740020487404A8CA
:101370000390012003E0386803900020C0433F1D24
:1013800061070FD5002101E00199491C029A0191E2
:10139000914213DA8142F7DB019A0399895C0029B3
:1013A000F2D10BE0002101E00199491C0191814239
:1013B000FADB019A0399895C0029F5D1019900981B
:1013C000139A401A00902146149B00F03BF90199B2
:1013D0008019461807E0039803990078491C039187
:1013E000149A139990470198401E0190401CF2D125
:1013F0002146149B139A009800F014F986196D1C6D
:1014000009E741E033E034E00A200021049005912F
:101410006002410F022905D001CFC217944603296B
:1014200005D007E0FF1DFF08FF0003CF06E000B274
:10143000C2179446042902D140B2C1178C4600223B
:101440006146944506DA0A460021404291418C46A5
:101450002D2102E0210504D52B216A4611760121B8
:1014600003E0E10701D02021F7E7019154E00A20D1
:101470000BE0102009E01020049000210420044318
:1014800008200591029003E00820002105910490B6
:101490006002410F022905D001CF002294460329A2
:1014A00006D006E0FF1DFF08FF0003CF8C4603E0D7
:1014B00080B2042900D1C0B20021019121072BD5AF
:1014C0000399702906D0049A1021059B4A401A43BB
:1014D00005D00EE040216A461176012108E0614600
:1014E000014306D030216A461176039951760221D4
:1014F0000191049A0821059B4A401A430CD1614688
:10150000014301D1610707D530216A4611760121D7
:1015100001910299491E02910399582904D037A1DB
:1015200003910FA90F910DE039A1F9E76146059BE1
:10153000049AFEF733FE039B8C469B5C0F9A521E67
:101540000F92137061460143F0D10F9807A9081A52
:1015500020300390600704D50120000484430298E2
:1015600001E0012002900399884201DD401A00E069
:10157000002041180290019809180098401A009024
:10158000E00306D42146149B139A009800F05AF801
:1015900086190020049008E006A9085C149A1399A3
:1015A00090470498401C761C049001998842F3DB14
:1015B000E0030CD52146149B139A009800F042F8E2
:1015C000861904E0149A302013999047761C0299EA
:1015D000481E02900029F5DC08E00F980F9900786A
:1015E000491C0F91149A13999047761C0399481E31
:1015F00003900029F1DCFBE6092801003031323389
:10160000343536373839616263646566000000003E
:101610003031323334353637383941424344454628
:1016200000000000F8B5044600251E461746880451
:1016300004D405E039462020B0476D1C641EF9D55E
:101640002846F8BDFFB50446002581B01E46C803F4
:1016500001D5302700E02027880404D505E038466E
:101660000399B0476D1C641EF9D5284605B0F0BD3E
:1016700010B50446FFF70AFB204610BDFFF7AAFA93
:10168000FFF726FC012291030548FFF7E1F8FFF779
:1016900071F9FFF771FBFEF7B7FFFEF7F5FEFCE708
:1016A0004040004010B50446016810A0FFF786FDD9
:1016B00011A06168FFF782FD12A0A168FFF77EFD0F
:1016C00013A0E168FFF77AFD14A02169FFF776FD0A
:1016D00015A06169FFF772FD16A0A169FFF76EFD05
:1016E00017A0E169FFF76AFD10BD000072302020ED
:1016F0003D20307825780A00723120203D20307856
:1017000025780A00723220203D20307825780A00A2
:10171000723320203D20307825780A007231322043
:101720003D20307825780A006C7220203D203078EA
:1017300025780A00706320203D20307825780A0043
:10174000707372203D20307825780A0002480169C4
:10175000491C016170470000100000200048E801AA
:101760000080000000D8B80500960000006CDC0284
:101770000000000000000000006CDC020048E801EE
:101780000000000000800000006CDC02000000008F
:10179000009600000048E801000000000080000002
:1017A000006CDC0200000000009600000048E80128
:1017B0000000000000800000006CDC02000000005F
:1017C0000096000000000000040000000800000077
:1017D0000C000000000000000000000000000000FD
:1017E00010000000000000000400000008000000DD
:1017F0000000000004000000080000000048E801AC
:101800000080000000000000000000000000000058
:101810000096000000000000006CDC023C18000094
:10182000000000202C000000DC11000068180000FF
:101830002C00002004020000EC11000000D8B805C4
:101840006000000000D8B8050000000000000000A3
:101850000000000000000000000000000000000088
:08186000000000000000000080
:04000005000000F106
:00000001FF
